:020000040800F2
:10000000F03E0020010100082D23000879180008A7
:1000100029230008970C0008D930000800000000D0
:10002000000000000000000000000000D7260008CB
:10003000850E000800000000DD230008812900086B
:100040001B0100081B0100081B0100081B01000820
:100050001B0100081B0100081B0100081B01000810
:100060001B0100081B0100081B0100081B01000800
:100070001B0100081B0100081B0100081B010008F0
:100080001B0100081B0100081B0100081B010008E0
:100090001B0100081B0100081B010008ED100008EF
:1000A0001B0100081B0100081B0100081B010008C0
:1000B000092A00081B0100081B0100081B01000899
:1000C0001B0100081B0100081B0100081B010008A0
:1000D0001B0100081B010008E92E00081B01000895
:1000E0001B0100081B0100081B010008DFF80CD0F1
:1000F00000F01CFC00480047B9430008F03E002017
:100100000648804706480047FEE7FEE7FEE7FEE7B1
:10011000FEE7FEE7FEE7FEE7FEE7FEE7A9290008A7
:10012000ED00000840EA01039B0703D009E008C97D
:10013000121F08C0042AFAD203E011F8013B00F8AC
:10014000013B521EF9D27047D2B201E000F8012BF8
:10015000491EFBD270470022F6E710B513460A4647
:1001600004461946FFF7F0FF204610BD421E12F864
:10017000013F002BFBD111F8013B02F8013B002BA2
:10018000F9D17047421C10F8011B0029FBD1801ADD
:10019000704780EA010210B502F00043400022D00F
:1001A0004A001FD0010E01EB1261C0F35600C2F3EA
:1001B000560240F4000042F40002A0FB02200004BA
:1001C0007F39140400D0401C50EA124001D4400092
:1001D000491EC2B20C0604EBD010401C4008802A15
:1001E00002D003E0002010BD20F00100002900DA59
:1001F0000020184310BD30B480EA010202F000452F
:1002000030F0004221F0004013D090B1C30DD40D66
:10021000C2F31601C0F31600E41A41F4000140F4E1
:1002200000027D34914201D3641C00E04900002C9F
:1002300002DA30BC002070474FF4000000239142E6
:1002400001D3891A034340084FEA4101F7D151B164
:10025000914202D14FF0004105E002D24FF001017E
:1002600001E06FF0010103EBC450284430BC00F002
:10027000B1BA2DE9FE4F804681EA0300C00F0C465B
:10028000009021F0004123F00045B8EB0200A941A5
:1002900005D24046214690461C460B46024623F0B6
:1002A0000040104347D0270DC7F30A00C3F30A519B
:1002B0000290401A019040286BDAC3F3130040F417
:1002C000801B0098924620B10023D2EB030A63EB17
:1002D0000B0B01985946C0F14002504600F049FA14
:1002E00006460D4650465946019A00F061FA10EB59
:1002F00008006141002487EA115284EAE7731A4337
:1003000040D0009A62B3019A012A4FEA075215DCE5
:10031000001B61EB02014FF0004202EA0752CDE9F7
:100320000042001C41F5801132462B4600F098FA3D
:1003300003B0BDE8F08F40462146F9E7001B61EBB2
:100340000201001C41F5801300185B412018A2F542
:10035000001747EB030140EAD570B6196D4111E073
:100360006D084FEA360645EAC0754FEA0752001B92
:1003700061EB0201001C41F5801149084FEA300091
:100380000019514132462B4603B0BDE8F04F00F052
:1003900058BA0098012240000023D0EB020263EB20
:1003A000E073009821464FEAE074B8EB000061EB7F
:1003B0000401E9E783F000435BE781F0004158E77F
:1003C0002DE9FE4F81EA030404F0004421F00041CE
:1003D00000944FF0000B23F0004350EA01045ED07C
:1003E00052EA03045BD0C3F30A54C1F30A552C4408
:1003F000A4F2F3340194A0FB0254C1F3130141F4BD
:100400008011C3F3130343F4801301FB024400FB88
:10041000034E840A970A44EA815447EA8357A4FBAF
:10042000076802958D0A05FB07854FEA932C04FBAC
:100430000C542705029D4FEA065847EA1637B5EBDC
:1004400008056EEB070C870E920E47EA811742EA09
:100450008312A7FB0201B6EB0B0164EB00042B0D2A
:1004600043EA0C335E1844EB1C50DA465146E7FB76
:100470000201C5F313044FEA0B3343EA14534FEA66
:100480000432019C43EA0603A4F10C040294009C8C
:10049000CDE900B400F0E4F903B0BDE8F08F00202E
:1004A0000146F9E72DE9F04D81EA030404F0004B21
:1004B00021F0004514464FF0000A23F0004150EAB5
:1004C000050220D054EA01021DD0C5F30A570246A6
:1004D000C5F31303C1F31300C1F30A5640F48015AA
:1004E00043F48013A7EB0608101BD64608F2FD382C
:1004F00073EB050002D308F1010801E092185B419B
:10050000B8F1000F03DA00200146BDE8F08D0020AD
:100510004FF48011064684460EE0171B73EB050767
:1005200005D3121B63EB050306434CEA010C490893
:100530004FEA300092185B4150EA0107EDD152EAD0
:10054000030012D082EA040083EA0501084305D0C3
:10055000101BAB4106D20122002306E000224FF01F
:10056000004302E06FF0010253101AEB06004CEB5F
:10057000085110EB0A0041EB0B01BDE8F04D00F013
:1005800060B996230022114600F02DB90EB5C10FB7
:1005900080EAE0700844CA07002140F233438DE846
:1005A0000E000A460B4600F05BF903B000BD0EB525
:1005B00040F2334102910021CDE900110A460B4679
:1005C00000F04EF903B000BD00F0004220F0004002
:1005D000C10DC0F3160040F400007F2901DA0020AD
:1005E0007047962903DCC1F19601C84001E09639B5
:1005F0008840002AF4D04042704720F00040C10DEE
:10060000C0F3160040F400007F2901DA0020704793
:10061000962903DCC1F19601C8407047963988409D
:100620007047C1F30A5210B5C1F3130140F2FF3312
:1006300041F480119A4201DA002010BD40F23343A8
:100640009A42A2F2334203DC524200F0A1F810BDFC
:10065000904010BD00F0004230F000400AD0C10DC3
:1006600001F56071C0F3160042EA0151C20840076B
:1006700011437047002001467047000030B5041E4A
:1006800071F1000404DB4FF00044404264EB0101CF
:10069000141E73F1000405DB1C464FF00043524268
:1006A00063EB0403994208BF904230BD01F0004360
:1006B00030B421F0004150EA010206D00A0DA2F543
:1006C0006072C1F31301002A02DC30BC00207047C5
:1006D000440F44EAC104C100E01830BC00EBC25032
:1006E00000F078B830B50B460146002020220124E6
:1006F00009E021FA02F59D4205D303FA02F5491BF0
:1007000004FA02F52844151EA2F10102F1DC30BD05
:100710002DE9F05F0546002092469B468846064636
:10072000814640241BE0284641464746224600F0C9
:100730002FF853465A46C01A914110D31146184615
:10074000224600F016F82D1A67EB01084F462246A4
:100750000120002100F00DF817EB00094E41201E8A
:10076000A4F10104DFDC484631462A464346BDE891
:10077000F09F202A04DB203A00FA02F100207047A3
:100780009140C2F1200320FA03F3194390407047CF
:10079000202A04DB203A21FA02F00021704721FAD6
:1007A00002F3D040C2F1200291400843194670473D
:1007B000202A06DBCB17203A41FA02F043EAE07325
:1007C00006E041FA02F3D040C2F120029140084312
:1007D000194670470029A8BF7047401C490008BF50
:1007E00020F00100704710B4B0FA80FC00FA0CF061
:1007F00050EA010404BF10BC704749B1CCF1200499
:1008000021FA04F411FA0CF118BF01212143084325
:10081000A3EB0C01CB1D4FEA00614FEA102042BF51
:10082000002010BC704700EBC35010440029A4BF47
:1008300010BC7047401C490008BF20F0010010BCEC
:10084000704710B5141E73F1000408DA401C41F122
:10085000000192185B411A4301D120F0010010BD44
:100860002DE9F04D92469B4611B1B1FA81F202E0BA
:10087000B0FA80F220329046FFF77BFF04460F4625
:1008800040EA0A0041EA0B0153465A46084313D096
:10089000114653EA010019D0C8F140025046FFF753
:1008A00077FF05460E46504659464246FFF761FF20
:1008B000084305D0012004E020463946BDE8F08D0C
:1008C0000020054346EAE0762C4337430A98630547
:1008D000E40AA0EB08000022FD0A44EA47540A306B
:1008E00002D500200146E9E7010510196941DDE95B
:1008F000084500196941BDE8F04DA2E7C1F30A526D
:10090000C1F3130140F2FF3341F480119A4202DA3D
:1009100000200146704740F233439A42A2F233422C
:1009200002DC5242FFF734BFFFF723BF064C074DEE
:1009300006E0E06840F0010394E8070098471034AF
:10094000AC42F6D3FFF7D6FBF091000810920008F6
:1009500021B1826842F00102826003E0826822F0E5
:1009600001028260704721B1826842F48072826025
:1009700003E0826822F480728260704701460020A2
:100980008A6802F004020AB1012000E000207047EA
:10099000014600208A6802F008020AB1012000E046
:1009A0000020704730B502460020002350680F4CED
:1009B00020400D790C6844EA05242043506090687B
:1009C0000B4C2040D1E902542C434D7944EA4504B4
:1009D00020439060D06A20F470000C7C641EE4B266
:1009E000234340EA0350D06230BD0000FFFEF0FF19
:1009F000FDF7F1FFF0B504460D4600200021092D5A
:100A000011DDE068A5F10A0606EB4607072606FA9F
:100A100007F18843A5F10A0606EB460603FA06F13C
:100A20000843E0600CE0206905EB4507072606FA5D
:100A300007F1884305EB450603FA06F108432061F8
:100A4000072A0FDA606B561E06EB86071F2606FA8A
:100A500007F18843561E06EB860605FA06F10843A1
:100A6000606322E00D2A0FDA206BD61F06EB8607A3
:100A70001F2606FA07F18843D61F06EB860605FAFD
:100A800006F10843206310E0E06AA2F10D0606EBD0
:100A900086071F2606FA07F18843A2F10D0606EB2A
:100AA000860605FA06F10843E062F0BD816841F070
:100AB00008018160704721B1826842F4A00282601F
:100AC00003E0826822F4A00282607047816841F0EE
:100AD000040181607047000008B50121042001F085
:100AE000BBFC0120ADF800000220ADF800000020A2
:100AF0008DF803006946024800F042FC08BD000082
:100B00000008014010B5FFF7E7FF00F001F810BD45
:100B100000B591B00121084601F06EFC01214802A8
:100B200001F09AFC384800F0D3F83848069038486D
:100B30000790002008904FF4A070099000200A90C0
:100B400080200B9040000C9080000D9020200E9093
:100B500000020F900020109006A92B4800F074F9B5
:100B6000022000F09BF80121274800F0A5F80020A2
:100B7000019001208DF808008DF809004FF46020E5
:100B800003900020049002208DF8140001A91F4852
:100B90004C38FFF707FF4FF4404001F021FC0023E1
:100BA0000122194619484C38FFF724FF0723022277
:100BB000012116484C38FFF71DFF012113484C381E
:100BC000FFF7D1FE012111484C38FFF7C1FE0F4855
:100BD0004C38FFF76BFF00BF0C484C38FFF7D8FECE
:100BE0000028F9D109484C38FFF770FF00BF0748CB
:100BF0004C38FFF7C3FE0028F9D1012103484C38D7
:100C0000FFF759FF11B000BD080002404C2401401D
:100C10006000002010B500F029F800F001F810BDC8
:100C20000EB50121084601F0F7FB4FF0804001F0BE
:100C30004BFF40F2E730ADF804004720ADF800006C
:100C40000020ADF8020069464FF0804002F04AF8FB
:100C50000121880701F026FF01221146900702F0CA
:100C600038F80121880701F023FF0EBD08B54FF4C5
:100C7000A06001F0A9FB1C208DF8000000208DF879
:100C8000010003208DF8020001208DF80300684662
:100C900001F062FB08BD00BFFEE7000000F08051DC
:100CA00011B10349086001E0024948607047000043
:100CB000040402400000024021B1026842F0010237
:100CC000026004E002684FF6FE731A40026070474B
:100CD00001684FF6FE721140016000210160416021
:100CE0008160C1604B49884208D14A490839496846
:100CF00041F00F01474A083A51608AE045491431F2
:100D0000884208D143490839496841F0F001414A15
:100D1000083A51607DE03F492831884208D13D4979
:100D20000839496841F470613A4A083A516070E004
:100D300038493C31884208D136490839496841F47C
:100D40007041344A083A516063E032495031884278
:100D500008D130490839496841F470212D4A083AD0
:100D6000516056E02B496431884208D1294908393D
:100D7000496841F47001274A083A516049E0254921
:100D80007831884208D123490839496841F07061B7
:100D9000204A083A51603CE01F49884206D1011FB1
:100DA000096841F00F01021F116032E01A49143145
:100DB000884208D11849091F096841F0F001164A14
:100DC000121F116025E014492831884208D11249C8
:100DD000091F096841F470610F4A121F116018E081
:100DE0000D493C31884208D10B49091F096841F47B
:100DF0007041094A121F11600BE0074950318842C7
:100E000007D10549091F096841F47021024A121FE0
:100E100011607047080002400804024001460020AB
:100E2000002201F0805313B1054B1A6801E0054B15
:100E30001A6802EA01030BB1012000E000207047AC
:100E4000000402400000024010B50022026847F68C
:100E5000F0739A430C6A8B6823430C6923434C69F3
:100E600023438C692343CC6923434C6A23438C6A14
:100E700023431A430260CB6843600B6883604B686E
:100E8000C36010BD704700002DE9FE4F07460C46B9
:100E900090469946DDE90D6A0C9D4B464246214637
:100EA0003846009500F050FF0848068001201021C8
:100EB000CDE900A1029004F1140081B22B46324624
:100EC000002000F0B5FCBDE8FE8F00003C000020D3
:100ED0000EB54FF6FF7000901E484388028800212F
:100EE000084600F031FF1CA04FF6FF714FF6E0728C
:100EF000CDE900210290174802883B2300210846D3
:100F0000FFF7C2FF17A04FF6FF711F22CDE90021A6
:100F100002901048028877233C210020FFF7B4FF9D
:100F200012A04FF6FF711F22CDE90021029009485F
:100F30000288B32378210020FFF7A6FF4FF6FF7049
:100F40000090044843880288B421002000F0FCFE91
:100F50000EBD0000E0020020D1AAD1F5BACDCCE54B
:100F6000CBF90000C2F6B2ABB2A80000C9E8B1B834
:100F7000D7B4CCAC0000000070B504460E4616484D
:100F8000068000250FE004FB05F0C0F1F00083B2FD
:100F900004FB05F0C0F1F00081B24FF4A072002014
:100FA00000F038FE6D1CC82090FBF4F0A842EADC8B
:100FB00000250AE004FB05F18AB204FB05F188B2C2
:100FC000F0233C2100F026FE6D1C4FF4A07090FB36
:100FD000F4F0A842EEDC70BD3C0000202DE9F05F8B
:100FE000824689461446A14532DAA4EB090014284A
:100FF0002EDC04EB090188B2FFF7D9FA074600227C
:101000004FF08043FFF74EFA0546FFF70AFB1FFA41
:1010100080FB002507E009EB050081B2504600F097
:1010200051FE681CC5B2ABEB0900A842F3DA0025FB
:1010300009E00BEB050291B20AF1010290B200F057
:1010400041FE681CC5B2A4EB0B00A842F1DA4AE0ED
:10105000A14532DDA9EB040014282EDC09EB0401C4
:1010600088B2FFF7A4FA054600224FF08043FFF74D
:1010700019FA0746FFF7D5FA1FFA80FB002507E0AB
:101080000BEB050081B2504600F01CFE681CC5B297
:10109000A9EB0B00A842F3DA002509E0ABEB05024F
:1010A00091B20AF1010290B200F00CFE681CC5B2C8
:1010B000ABEB0400A842F1DA15E05FEA04090AD0BC
:1010C0004946504600F0FEFD0AF1010188B2214672
:1010D00000F0F8FD07E00AF1010082B2234649461C
:1010E000504600F097FDBDE8F09F000010B52020AD
:1010F00000F06AF8A0B100BF20212B4800F0CBF926
:101100000128F9D0142002F01BFD28480078401C6B
:1011100026490870012026490870202000F04EF86A
:10112000402000F051F8A0B100BF40211E4800F05F
:10113000B2F90128F9D0142002F002FD1B48007812
:10114000401E1A490870012019490870402000F01B
:1011500035F8802000F038F878B100BF80211248BF
:1011600000F099F90128F9D0142002F0E9FC0120DF
:1011700010490870802000F021F84FF4807000F0D2
:1011800023F880B100BF4FF48071074800F083F965
:101190000128F8D0142002F0D3FC01200649087081
:1011A000000200F00BF810BD0008014033000020E1
:1011B000360000203500002034000020014908607E
:1011C0007047000014040140014600200022074B34
:1011D0001B6803EA0102054B14331B680B4013B173
:1011E0000AB1012000E00020704700000004014027
:1011F000002123498279002A3AD00A4612680368FE
:101200009A430B461A600A1D126803689A430B1D25
:101210001A60027911440A6803681A430A60184A7E
:101220000832126803689A43154B08331A601A1D76
:10123000126803689A43124B0C331A604279102AE1
:101240000ED11A1F126803681A430D4B08331A6037
:101250001A1D126803681A43094B0C331A600DE01B
:101260000749427911440A6803681A430A6005E095
:10127000027911440A6803689A430A6070470000C3
:10128000000401400EB50121052001F0E5F801F050
:101290004EF84FF4F070ADF8080028208DF80B00E0
:1012A00002A9264800F06CF80821002000F048F858
:1012B0004FF48070009000208DF8040008208DF815
:1012C000050001208DF806006846FFF791FF052113
:1012D000002000F035F82020009000208DF8040058
:1012E00008208DF8050001208DF806006846FFF7FC
:1012F0007FFF0621002000F023F84020009000200E
:101300008DF8040008208DF8050001208DF80600F6
:101310006846FFF76DFF0721002000F011F88020DC
:10132000009000208DF8040008208DF805000120B1
:101330008DF806006846FFF75BFF0EBD0008014010
:1013400030B500228B071C0F0F2303FA04F20B4B5E
:101350008C1053F824309343084C8D1044F82530FA
:1013600023468C1053F824308C07240F00FA04F421
:101370002343024C8D1044F8253030BD0800014055
:101380002DE9F0410246002500260020002300241C
:10139000002791F803C00CF00F0591F803C00CF082
:1013A000100CBCF1000F03D091F802C04CEA050507
:1013B00091F800C0BCF1000F31D0146800202BE080
:1013C0004FF0010C0CFA00F3B1F800C00CEA030670
:1013D0009E4220D183004FF00F0C0CFA03F7BC4360
:1013E00005FA03FC4CEA040491F803C0BCF1280F91
:1013F00006D14FF0010C0CFA00FCC2F814C00AE050
:1014000091F803C0BCF1480F05D14FF0010C0CFA64
:1014100000FCC2F810C0401C0828D1D31460B1F8F9
:1014200000C0BCF1FF0F34DD546800202EE000F155
:10143000080C4FF0010808FA0CF3B1F800C00CEAF0
:1014400003069E4221D183004FF00F0C0CFA03F7E4
:10145000BC4305FA03FC4CEA040491F803C0BCF158
:10146000280F05D100F1080C08FA0CF8C2F8148016
:1014700091F803C0BCF1480F07D100F1080C4FF000
:10148000010808FA0CF8C2F81080401C0828CED3D6
:101490005460BDE8F0810246002093680B400BB118
:1014A000012000E0002070472DE9FC5F05468846DA
:1014B00091469A46DDF830B0009542200190002414
:1014C0005FE004EB0410374911F810009BF800109E
:1014D000884253D104EB0410324901EB40004078BC
:1014E0009BF80110884249D108F10F0083B205F141
:1014F0000F0082B24146284600F0E4FD00263BE0A2
:10150000002734E00D9890B904EB0410254901EB55
:101510004000801C805D80213941084018B1484658
:1015200000F0F6FB21E0504600F0F2FB1DE01E4803
:10153000A0F8009004EB04101A4901EB4000801C55
:10154000805D80213941084018B14146284600F0AD
:10155000B9FB681C85B20098281A102805D1009D97
:1015600008F101001FFA80F803E0781CC7B2082FC9
:10157000C8DB00BF701CC6B2202EC1DB00BF601CE0
:1015800084B2019884429CDB08484088401E83B2A4
:1015900006480088401E82B20021084600F092FDF5
:1015A000BDE8FC9FD25900083C000020E00200206A
:1015B0002DE9FC5F0546884691469A46DDF830B035
:1015C000009507200190002467E004EB840000EB05
:1015D00044103A4911F810009BF80010884259D184
:1015E00004EB840000EB4410344901EB40004078E8
:1015F0009BF8011088424DD108F1170083B205F124
:10160000170082B24146284600F05CFD00263FE00C
:10161000002738E00D98A0B904EB840000EB4410DB
:10162000264901EB4000801C805D80213941084043
:1016300018B1484600F06CFB23E0504600F068FB10
:101640001FE01F48A0F8009004EB840000EB44105A
:101650001A4901EB4000801C805D8021394108401F
:1016600018B14146284600F02DFB681C85B2009851
:10167000281A182805D1009D08F101001FFA80F8EA
:1016800003E0781CC7B2082FC4DB00BF701CC6B2D1
:10169000482EBDDB00BF601C84B20198844294DBFD
:1016A00008484088401E83B206480088401E82B227
:1016B0000021084600F006FDBDE8FC9F9662000888
:1016C0003C000020E00200202DE9FC5F0546884632
:1016D00091469A46DDF830B0009504200190002430
:1016E0005FE004EB8410374911F810009BF80010FC
:1016F000884253D104EB8410324901EB400040781A
:101700009BF80110884249D108F11F0083B205F10E
:101710001F0082B24146284600F0D4FC00263BE080
:10172000002734E00D9890B904EB8410254901EBB3
:101730004000801C805D80213941084018B1484636
:1017400000F0E6FA21E0504600F0E2FA1DE01E4803
:10175000A0F8009004EB84101A4901EB4000801CB3
:10176000805D80213941084018B14146284600F08B
:10177000A9FA681C85B20098281A202805D1009D76
:1017800008F101001FFA80F803E0781CC7B2082FA7
:10179000C8DB00BF701CC6B2802EC1DB00BF601C5E
:1017A00084B2019884429CDB08484088401E83B282
:1017B00006480088401E82B20021084600F082FCE4
:1017C000BDE8FC9F9C6400083C000020E002002073
:1017D0002DE9F04706460F46154607F13F0083B254
:1017E00006F13F0082B23946304600F06BFC00241F
:1017F0000AE015F8149005EB440090F8018049EADE
:10180000082000F085FA641CB4F5805FF1DB07481E
:101810004088401E83B205480088401E82B20021E5
:10182000084600F04FFCBDE8F0870000E002002011
:101830002DE9FF4F83B004460F469046DDE9119A2B
:10184000109D2846FEF79EFC86B20A490988A1EB46
:10185000C60000EBD071C1F34F0B04EB0B0188B253
:101860008DE8200642463946069B00F0C5FF07B0CA
:10187000BDE8F08FE002002000BFFEE770B5D8B0F1
:101880000446FC221A4919A8FEF74CFC64221849A8
:10189000FC316846FEF746FC16A119A8FEF766FC67
:1018A0001EA119A8FEF762FC22A119A8FEF75EFC92
:1018B000694619A8FEF75AFC64216846FEF74BFCFE
:1018C0002046FEF7C7FE05462A460B461EA168467F
:1018D00001F038FC694619A8FEF748FC1CA119A8BC
:1018E000FEF744FC19A91D4801F007FC58B070BD73
:1018F000909000086170692D6B65793A20306771AE
:1019000064796D4147355951373679374355573DDD
:1019100046784F726C4F3D773D0A0000486F7374F4
:101920003A6170692E6865636C6F7564732E636FBE
:101930006D0A0000436F6E74656E742D4C656E67A2
:1019400074683A36380A0A0025322E3166000000E3
:101950007D5D7D5D7D0D0A0D0A00000000440040A4
:1019600010B500200F4908600F48006820F00F00F4
:101970000D4908600846006840F007000860002034
:101980000A49C1F8A001022002F0F8F80120054937
:101990000860022002F0F2F800200449C1F89C011E
:1019A00010BD00009C812142040C014000802142B6
:1019B00008B50121082000F04FFD4FF4C070ADF8CC
:1019C000000010208DF8030003208DF80200694606
:1019D0000448FFF7D5FC0120034908600349C1F81A
:1019E000A00108BD000C01409C81214200802142E1
:1019F00010B500200F4908600F48006820F00F0064
:101A00000D4908600846006840F0070008600120A2
:101A10000A49C1F8A001022002F0B0F801200549EE
:101A20000860022002F0AAF800200449C1F89C01D5
:101A300010BD00009C812142040C01400080214225
:101A400070B5054600241748006820F00F001549BE
:101A500008600846006840F004000860002616E0B0
:101A6000002011490860022002F088F801200F4987
:101A7000C1F89C016006040E0B487C38006808B170
:101A8000601CC4B2012002F079F8701CC6B2082EA6
:101A9000E6DB15B9FFF7ACFF01E0FFF761FF204679
:101AA00070BD0000040C01409C8121420080214255
:101AB00070B504461548006820F00F00134908600F
:101AC0000846006840F007000860002010490860E0
:101AD000002517E0E0090E49091D08606006040EA4
:101AE000022002F04BF801200A49C1F89C010220B3
:101AF00002F044F8002006490860022002F03EF897
:101B0000681CC5B2082DE5DB70BD0000040C014067
:101B10009C8121420080214210B50F48006820F0CE
:101B20000F000D4908600846006840F00700086093
:101B300001200A4908600A49C1F89C01042002F00A
:101B40001DF8002005490860042002F017F8002065
:101B50000349C1F89C0110BD040C0140A081214241
:101B60000080214210B50F48006820F00F000D4999
:101B700008600846006840F00700086000200A4935
:101B800008600A49C1F8A001042001F0F7FF012014
:101B9000054908600549C1F8A001042001F0EEFFE5
:101BA00010BD0000040C01409C81214200802142B4
:101BB00010B500241448006820F00F001249086096
:101BC0000846006840F00400086001200F490860E2
:101BD00001F0D4FF01200E49C1F89C0101F0CEFFB5
:101BE00007E0601CC4B2FA2C03DDFFF7BBFF012045
:101BF00010BD0648803800680028F2D10349091F4B
:101C0000086000BFF4E70000040C0140A0812142FD
:101C1000008021422DE9FF4F85B081468A46002091
:101C2000049003900798A0EB09050898A0EB0A061A
:101C3000CDF80890CDF804A0002D01DD012705E0C6
:101C40000DB9002702E04FF0FF376D42002E02DD94
:101C50004FF0010806E016B94FF0000802E04FF01F
:101C6000FF387642B54201DD2C4600E034464FF0A5
:101C7000000B21E0019A91B2029A90B200F022F892
:101C80000498284404900398304403900498A04298
:101C900005DD0498001B04900298384402900398D4
:101CA000A04205DD0398001B039001984044019079
:101CB0000BF101001FFA80FB601C8345DADD09B0DF
:101CC000BDE8F08F30B504460D462946204600F0A9
:101CD000C7F94FF400600B4908604010091F086005
:101CE000094800880112094800F0E4FC0648017820
:101CF000064800F0DFFC4FF400600249091F08604D
:101D000030BD0000140C01403C00002000380040B1
:101D100000B503464FF40060094908604010091FF0
:101D200008601912074800F0C5FCD9B2054800F058
:101D3000C1FC4FF400600249091F086000BD0000AB
:101D4000140C0140003800402DE9F84F06460F46BC
:101D500014461D46DDF82880A01B401C1FFA80FB9E
:101D6000E81B401C80B20090681E83B2601E82B2E5
:101D70003946304600F0A6F94FF400601A49086071
:101D80004010091F08604FF0000917E04FF0000AEB
:101D90000DE04FEA2821154800F08CFC08F0FF0107
:101DA000124800F087FC0AF101001FFA80FA00983F
:101DB0008245EEDB09F101001FFA80F9D945E5DB28
:101DC0004FF400600849091F086009484088401E18
:101DD00083B207480088401E82B20021084600F006
:101DE00071F9BDE8F88F0000140C01400038004084
:101DF000E002002010B500F0D5FB00F01DF9CF2067
:101E000000F06AFA002000F04FFAC12000F04CFA0E
:101E1000302000F049FAED2000F05EFA642000F076
:101E200043FA032000F040FA122000F03DFA81202E
:101E300000F03AFAE82000F04FFA852000F034FA7A
:101E4000102000F031FA7A2000F02EFACB2000F0BA
:101E500043FA392000F028FA2C2000F025FA00205F
:101E600000F022FA342000F01FFA022000F01CFAE1
:101E7000F72000F031FA202000F016FAEA2000F0F6
:101E80002BFA002000F010FA002000F00DFAC0201C
:101E900000F022FA1B2000F007FAC12000F01CFA23
:101EA000012000F001FAC52000F016FA302000F001
:101EB000FBF9302000F0F8F9C72000F00DFAB72048
:101EC00000F0F2F9362000F007FA482000F0ECF9B3
:101ED0003A2000F001FA552000F0E6F9B12000F0B8
:101EE000FBF9002000F0E0F91A2000F0DDF9B6203F
:101EF00000F0F2F90A2000F0D7F9A22000F0D4F99E
:101F0000F22000F0E9F9002000F0CEF9262000F0E0
:101F1000E3F9012000F0C8F9E02000F0DDF90F201E
:101F200000F0C2F92A2000F0BFF9282000F0BCF927
:101F3000082000F0B9F90E2000F0B6F9082000F0F2
:101F4000B3F9542000F0B0F9A92000F0ADF9432016
:101F500000F0AAF90A2000F0A7F90F2000F0A4F978
:101F6000002000F0A1F9002000F09EF9002000F010
:101F70009BF9002000F098F9E12000F0ADF9002075
:101F800000F092F9152000F08FF9172000F08CF97D
:101F9000072000F089F9112000F086F9062000F0F2
:101FA00083F92B2000F080F9562000F07DF93C20C9
:101FB00000F07AF9052000F077F9102000F074F9AC
:101FC0000F2000F071F93F2000F06EF93F2000F083
:101FD0006BF90F2000F068F92B2000F07DF900204C
:101FE00000F062F9002000F05FF9012000F05CF9D8
:101FF0003F2000F059F92A2000F06EF9002000F08F
:1020000053F9002000F050F9002000F04DF9EF20C6
:1020100000F04AF9112000F05FF9782001F090FDFE
:10202000292000F059F900F037F84FF40070014909
:10203000086010BD100C014010B54FF480500749E6
:102040000860642001F07CFD4FF480500349091FB3
:102050000860322001F074FD10BD0000140C014036
:1020600030B504460D460B49887A00F035F9201248
:1020700000F01AF9E0B200F017F90649087B00F009
:102080002BF9281200F010F9E8B200F00DF900F079
:1020900039F930BDE002002000B52C200849088144
:1020A000012088714FF4A0700880F02048802A2019
:1020B00048812B2088816C21362000F02BF900BD4F
:1020C000E0020020F0B504460D4616461F461149B1
:1020D000887A00F001F9201200F0E6F8E0B200F092
:1020E000E3F8301200F0E0F8F0B200F0DDF8094952
:1020F000087B00F0F1F8281200F0D6F8E8B200F002
:10210000D3F8381200F0D0F8F8B200F0CDF800F0B3
:10211000F9F8F0BDE00200202DE9FF4F83B08146C1
:102120008A469346DDE91064404800880290A6F193
:102130002000C6B204EBD47009EB6000401E82B2EE
:102140000AEB0400401E83B2514648460194FFF753
:10215000B9FF129850BB002525E00C2C07D106EBE7
:102160004600334901EB800010F8058004E0314857
:1021700000EB061010F8058000270DE008F00100C4
:1021800018B15846FFF7C4FD02E00698FFF7C0FDFE
:102190004FEA6808781CC7B204EBD471B7EB610F43
:1021A000ECDB681CC5B2A542D7DB2DE0002529E099
:1021B0000C2C07D106EB46001D4901EB800010F8FE
:1021C000058004E01B4800EB061010F8058000278E
:1021D00011E01648A0F800B008F0010038B10AEB91
:1021E000050291B209EB070290B2FFF76BFD4FEACF
:1021F0006808781CC7B204EBD471B7EB610FE8DB59
:10220000681CC5B2A542D3DB0849029808800A4879
:102210004088401E83B208480088401E82B20021D8
:102220000846FFF74FFF07B0BDE8F08F3C000020E5
:102230006E4F0008E2530008E00200202DE9FE4343
:1022400006460F4615461C46DDF828801DE013485B
:102250000088401EB04204DB10484088401EB8424F
:1022600001DABDE8FE8320788DE821010C4803885F
:102270000C48028839463046FFF74EFF284605EBEA
:10228000D07106EB61018EB2641C20787E2802DCDE
:1022900020782028DBDA00BFE3E70000E00200201E
:1022A0003E0000203C00002000B503464FF40060D3
:1022B000074908604010091F08601946054800F0EA
:1022C000F9F94FF400600249091F086000BD0000E1
:1022D000140C01400038004000B503464FF4006084
:1022E00006490860401008601946054800F0E2F908
:1022F0004FF400600149091F086000BD140C014043
:102300000038004000B50249087AFFF7E5FF00BD3C
:10231000E002002030B505460C462846FFF7DCFFFA
:10232000E0B2FFF7C1FF30BD00BFFEE7704708B560
:102330004FF4C06000F048F817208DF8000001202D
:102340008DF8010003208DF8020001208DF80300B4
:10235000684600F001F808BD70B5002100230F2287
:10236000C47804B3154C246804F4E064C4F5E06454
:10237000210AC1F10403CA40447804FA03F18478C5
:102380001440214309010E4C0678A155047804F04D
:102390001F050124AC4005786D11AD0005F1E02565
:1023A000C5F8004109E0047804F01F050124AC40A1
:1023B000044D0678761145F8264070BD0CED00E01E
:1023C00000E400E080E100E002490143024A1160BC
:1023D000704700000000FA050CED00E070470000B7
:1023E00001460020034A506820F4404008435060F2
:1023F000704700000010024029B1064A52690243AA
:10240000044B5A6104E0034A52698243014B5A610A
:10241000704700000010024029B1064AD269024309
:10242000044BDA6104E0034AD2698243014BDA616A
:10243000704700000010024029B1064A12690243A9
:10244000044B1A6104E0034A12698243014B1A618A
:10245000704700000010024029B1064A9269024309
:10246000044B9A6104E0034A92698243014B9A61EA
:10247000704700000010024029B1064AD2680243AA
:10248000044BDA6004E0034AD2688243014BDA600D
:10249000704700000010024030B5002100220024E7
:1024A00000232D4D6D6805F00C0121B1042905D0E4
:1024B000082923D105E0294D056022E0274D05605C
:1024C0001FE0254D6D6805F47012234D6D6805F40D
:1024D0008034022505EB92421CB9214D554305601D
:1024E0000BE01D4D6D6805F400351DB11C4D5543C5
:1024F000056002E0194D5543056002E0174D056087
:1025000000BF00BF144D6D6805F0F0010909154DBD
:102510006B5C0568DD4045600F4D6D6805F4E0615A
:10252000090A104D6B5C4568DD4085600A4D6D6899
:1025300005F46051C90A0B4D6B5C4568DD40C56010
:10254000054D6D6805F44041890B074D6B5CC5680E
:10255000B5FBF3F5056130BD0010024000127A00B2
:1025600000093D00140000202400002010B50246A0
:102570000023002108E00A4800EB810030F8120037
:10258000034401F10A00C1B2A029F4DBA020B3FB8F
:10259000F0F000EB80004FF6FF7404EA400010BD3D
:1025A0006000002000B587B001210920FFF754FF2B
:1025B0004FF42040ADF8040003208DF806001820E9
:1025C0008DF8070001A92448FEF7DAFE4FF4804099
:1025D000ADF8040048208DF8070003208DF80600B0
:1025E00001A91D48FEF7CCFE4FF4F050ADF80400F1
:1025F00003208DF8060010208DF8070001A9164869
:10260000FEF7BEFE01218803FFF706FF0020ADF8AC
:1026100008004FF48270ADF80A000020ADF80C00FD
:102620000220ADF80E000120ADF810004002ADF818
:1026300012000020ADF81400ADF816000720ADF828
:10264000180002A9054800F017F80121034800F01E
:1026500007F807B000BD0000000C01400038004042
:1026600021B1028842F04002028004E002884FF665
:10267000BF731A400280704710B50022028802F42E
:1026800041520B884C8823438C882343CC882343B6
:102690000C8923434C8923438C892343CC892343CE
:1026A0001A430280838B4FF2FF74234083830B8A8B
:1026B000038210BD024600BF108900F0020000280E
:1026C000FAD0918100BF108900F001000028FAD0F3
:1026D0009089C0B27047704708B50020084908705B
:1026E00008490870084908704FF6FF7000900748C5
:1026F0004388028800210846FFF726FB08BD00003A
:10270000330000203400002035000020E0020020CB
:1027100010B500F001F810BD0CB50020019000903C
:102720003348006840F480303149086000BF3048C9
:10273000006800F4003000900198401C019000985F
:1027400018B90198B0F5A06FF1D12948006800F4DC
:10275000003010B10120009001E0002000900098AE
:10276000012843D12348006840F010002149086047
:102770000846006820F0030008600846006840F042
:10278000020008601A4840681949486008464068D5
:1027900048600846406840F48060486008464068E9
:1027A00020F47C1048600846406840F4E810486017
:1027B0000846006840F08070086000BF0C48006860
:1027C00000F000700028F9D00948406820F00300AC
:1027D000074948600846406840F00200486000BF72
:1027E0000348406800F00C000828F9D10CBD000037
:1027F00000100240002002402DE9FF4F83B0064642
:1028000088469146DDE91147109DB2464FF0000B16
:1028100071E0BBF1000F40D104EBD471384A12884B
:10282000A2EB6101B14204DB35494988091B4145EE
:1028300002DA07B0BDE8F08F2878802802DD4FF07B
:10284000010B58E028780D2806D108EB04001FFA88
:1028500080F856466D1C1EE0102C0DDD10212878E6
:102860008DE883004A4641463046069BFFF754FCFC
:1028700006F1080086B20EE028788DE891004A46FD
:1028800041463046069BFFF747FC204604EBD071DB
:1028900006EB61018EB26D1C2DE019480088001B0B
:1028A000B04204DB16484088001B404500DAC0E710
:1028B0004FF0000B202C08D1CDE900574A46414685
:1028C0003046069BFEF700FF12E0182C08D1CDE938
:1028D00000574A4641463046069BFEF769FE07E030
:1028E000CDE900574A4641463046069BFEF7DCFDDF
:1028F000AD1C301986B2287800288AD100BF98E72D
:10290000E0020020042808D14FF0E021096941F0DD
:1029100004014FF0E022116107E04FF0E021096966
:1029200021F004014FF0E0221161704730B50146FB
:10293000B1F1807F01D3012030BD21F07F40401EE6
:102940004FF0E022506150170F22002807DA1307DA
:102950001D0E094B00F00F04241F1D5503E0130743
:102960001C0E064B1C5400BF00204FF0E02290616B
:10297000072010610020DFE718ED00E000E400E030
:102980007047000010B5064800680649B0FBF1F436
:102990002046FFF7CBFF08B100BFFEE710BD0000E7
:1029A00000000020A086010010B51348006840F028
:1029B00001001149086008464068104908400E4966
:1029C0004860084600680E4908400B490860084600
:1029D000006820F4802008600846406820F4FE006B
:1029E00048604FF41F008860FFF792FE4FF00060D0
:1029F0000449086010BD0000001002400000FFF80C
:102A0000FFFFF6FE08ED00E010B50121880700F099
:102A10004FF940B10121880700F047F818480068D5
:102A2000401C17490860164800680A2190FBF1F223
:102A300001FB120018B901211248FEF73CF81048BA
:102A40000068B0F5FA7F02D101200F4908700C48E8
:102A50000068B0F57A7F02D101200C49087008485F
:102A6000006840F63401884208D1652004490860B6
:102A700001200749087007A000F054FB10BD0000BA
:102A800038000020002401403000002031000020E8
:102A90003200002074696D65207570646174652072
:102AA0000D0A0000CA4302827047CA43028270477F
:102AB00021B1028842F00102028004E002884FF650
:102AC000FE731A400280704710B50446684884427D
:102AD00008D10121C014FFF7CFFC0021E014FFF75B
:102AE000CBFCC4E0B4F1804F08D101210846FFF7C8
:102AF000A3FC00210120FFF79FFCB8E05D48844261
:102B000008D101210220FFF797FC00210220FFF7E6
:102B100093FCACE05848844208D101210420FFF71F
:102B20008BFC00210420FFF787FCA0E0534884427F
:102B300008D101210820FFF77FFC00210820FFF7C2
:102B40007BFC94E04E48844208D101211020FFF71D
:102B500073FC00211020FFF76FFC88E04948844295
:102B600008D101212020FFF767FC00212020FFF77A
:102B700063FC7CE04448844208D101214014FFF703
:102B80007BFC00216014FFF777FC70E03F48844233
:102B900009D10121C804FFF76FFC00214FF4002088
:102BA000FFF76AFC63E03A48844209D10121080535
:102BB000FFF762FC00214FF48010FFF75DFC56E048
:102BC0003448844209D101214805FFF755FC002112
:102BD0004FF40010FFF750FC49E02F48844208D121
:102BE00001214020FFF728FC00214020FFF724FCB2
:102BF0003DE02A48844208D101218020FFF71CFCD7
:102C000000218020FFF718FC31E02548844208D1DC
:102C100001218015FFF710FC0021A015FFF70CFC27
:102C200025E02048844209D101210804FFF724FC53
:102C300000214FF48030FFF71FFC18E01A4884424F
:102C400009D101214804FFF717FC00214FF400309F
:102C5000FFF712FC0BE01548844208D101218804DB
:102C6000FFF70AFC00214FF48020FFF705FC10BDA0
:102C7000002C01400004004000080040000C00400F
:102C8000001000400014004000340140004C01409E
:102C9000005001400054014000180040001C00405A
:102CA0000020004000400140004401400048014035
:102CB00030B50246002000230024158A05EA0103EE
:102CC000958905EA010413B10CB1012000E0002050
:102CD00030BD1AB183890B43838102E083898B4322
:102CE00083817047002202881D4B98420ED01D4BF5
:102CF00098420BD0B0F1804F08D01B4B984205D0C2
:102D00001A4B984202D01A4B984204D14FF68F7357
:102D10001A404B881A43174B984207D0164B9842DB
:102D200004D04FF6FF431A40CB881A4302808B88A9
:102D300083850B8803850A4B98420BD0094B984238
:102D400008D00E4B984205D00D4B984202D00D4B47
:102D5000984201D10B7A03860123838270470000D9
:102D6000002C0140003401400004004000080040F5
:102D7000000C0040001000400014004000400140E2
:102D8000004401400048014000B587B00121042003
:102D9000FFF762FB01218803FFF75EFB4FF4007031
:102DA000ADF8180018208DF81B0003208DF81A00CC
:102DB00006A91F48FEF7E4FA4FF48060ADF818004A
:102DC00004208DF81B0006A91948FEF7D9FA4FF424
:102DD000E13002900020ADF80C00ADF80E00ADF827
:102DE0001000ADF814000C20ADF8120002A9114833
:102DF00000F002F94FF4A060FFF7E6FA25208DF805
:102E0000040000208DF805008DF8060001208DF8E3
:102E1000070001A8FFF7A0FA012240F2255105485A
:102E200000F0C4F80121034800F07DF807B000BDB0
:102E3000000801400038014000B587B0012104209E
:102E4000FFF70AFB01214804FFF7E6FA0420ADF87A
:102E5000180018208DF81B0003208DF81A0006A911
:102E60001F48FEF78DFA0820ADF8180004208DF8F1
:102E70001B0006A91A48FEF783FA4FF4E1300290CE
:102E80000020ADF80C00ADF80E00ADF81000ADF864
:102E900014000C20ADF8120002A9124800F0ACF8A2
:102EA0004FF4A060FFF790FA26208DF8040001206F
:102EB0008DF8050003208DF8060001208DF807002D
:102EC00001A8FFF749FA012240F22551054800F018
:102ED0006DF80121034800F026F807B000BD00009E
:102EE000000801400044004010B540F2255105485B
:102EF00000F032F820B140F22551024800F004F809
:102F000010BD00000044004010B50022002340F630
:102F10006A14A14200D100BF0A1201249440A3B256
:102F2000DC43048010BD21B1828942F400528281C9
:102F300004E082894DF6FF731A4082817047024691
:102F40000020B1F5007F00D100BF13880B400BB10A
:102F5000012000E00020704770B5024600240023E5
:102F60000025002040F66A16B14200D100BFC1F32F
:102F7000421501F01F03012606FA03F3012D02D1C9
:102F80009689334006E0022D02D1168A334001E0D3
:102F9000968A33400C12012606FA04F4168834404F
:102FA00013B10CB1012000E0002070BDF0B5034664
:102FB000002400260025002040F66A17B94200D1FF
:102FC00000BF1846C1F3421401F01F06012707FA9B
:102FD00006F5012C01D10C3004E0022C01D1103097
:102FE00000E014301AB107682F43076002E0076859
:102FF000AF430760F0BD00002DE9F04786B00546FD
:103000000E460024A24600BFA1460027B08900B1A9
:1030100000BF2F462C8A4CF6FF700440F088044312
:103020002C82AC894EF6F3100440B08831890843F5
:10303000718908430443AC81AC8A4FF6FF400440D9
:10304000B0890443AC8201A8FFF726FA1F488742E3
:1030500002D1DDF810A001E0DDF80CA0A88900F491
:10306000004040B10AEBCA0000EB0A103168490089
:10307000B0FBF1F807E00AEBCA0000EB0A10316878
:103080008900B0FBF1F86420B8FBF0F004012009DE
:10309000642101FB1089A88900F4004040B132206E
:1030A00000EBC900B0FBF1F000F00700044308E0BA
:1030B000322000EB09106421B0FBF1F000F00F00AA
:1030C00004432C8106B0BDE8F087000000380140C1
:1030D000C1F308028280704700BFFEE770B5044666
:1030E0000D4629462046FFF7F3FF00BF802120460A
:1030F000FFF725FF0028F9D070BD70B506460C46D5
:10310000002500BF615D3046FFF7E8FF6D1C605D84
:103110000028F7D100BF40213046FFF710FF0028FC
:10312000F9D070BD0FB4054B10B503A9044A02983D
:1031300000F0DEF810BC5DF814FB0000B93B00089D
:103140005C0000200FB4084B10B504A902AA039834
:1031500000F0CEF8044602A9002000F060FC2046F2
:1031600010BC5DF814FB00001F3A000802E008C81C
:10317000121F08C1002AFAD170477047002001E0F1
:1031800001C1121F002AFBD1704700002DE9FF5F2B
:10319000DDE90220010DDDF838B0024318D044F615
:1031A0001050A1F2FF3141430D140F98012820D097
:1031B000A5EB0B00401C5FEA000A4FF00004474EED
:1031C000DFF81C91A046504616D5CAF1000728E04A
:1031D0000F98012443A2012808D0002100980F9BDA
:1031E000C0E90021C0E90243BDE8FF9F6FEA0B017F
:1031F000F4E7CBF10000DEE7074612E0F80707D05E
:103200002246334640464946FDF7DAF8804689466D
:103210002246334610461946FDF7D2F804460E46BC
:103220007F10002FEAD1DDE90201BAF1000F42461A
:103230004B4602DAFDF7C4F801E0FDF733F9044626
:103240000E460022284BFDF719FA03D84FF0FF3045
:10325000014607E00022254B20463146FDF709F8DC
:10326000FDF74CFB102409E0002C0ADB0A220023A6
:10327000FDF74EFA019B30321A55641E50EA0102E6
:10328000F2D1641C019AC4F1110314440F9A012A6B
:1032900003D0012208430DD10AE0084304D00020E6
:1032A0004FF0110B0F9080E7A3EB0B056D1E0DE0A7
:1032B0005B4504DD4FF0000205F1010504E003DA8F
:1032C0004FF00002A5F10105002AECD000980F99FB
:1032D000C0E90231C0E9004586E700000000244053
:1032E0000000F03F300000000000F0430000E03F2D
:1032F0002DE9FF4F95B09B468946064600250FE213
:10330000252877D100242746F84A0121059400E0BA
:10331000044316F8013F203B01FA03F01042F7D1B5
:1033200030782A2811D06FF02F033078A0F13002C6
:10333000092A16D8059A44F0020402EB820203EB34
:1033400042021044761C0590EFE759F8042B0592D1
:10335000002A03DA504244F40054059044F0020479
:10336000761C30782E2816D116F8010F44F004048C
:103370002A280DD06FF02F023078A0F13003092BEE
:1033800009D807EB870302EB4303C718761CF3E762
:1033900059F8047B761C30786C280FD006DC4C285A
:1033A00017D068280DD06A2814D104E0742810D0F2
:1033B0007A280FD10DE044F400140AE044F480149C
:1033C00001E044F440147278824202D104F5801482
:1033D000761C761C307866280BD013DC582877D002
:1033E00009DC002875D04528F6D04628F4D04728B7
:1033F0001AD19DE118E0632835D0642879D065287A
:1034000012D195E1702873D008DC6728F1D06928C3
:103410006FD06E280DD06F2806D1B5E073282CD060
:10342000752875D0782874D05A46179990476D1C26
:1034300075E1C4F30250022809D003280DD0D9F851
:10344000001004280DD00D6009F1040967E1D9F8D6
:103450000010EA17C1E90052F6E7D9F800100D8014
:10346000F2E70D70F0E719F8041B8DF8001000204A
:103470008DF80100EA46012003E059F804AB4FF053
:10348000FF3061074FF0000102D40DE008F10101A7
:103490008846B9420FDA8045F8DB1AF8081000298F
:1034A000F4D108E008F1010188468142FADB1AF8FC
:1034B00008100029F6D105985B46A0EB08072146C5
:1034C0003846179A00F094FA284400EB080507E004
:1034D0004DE029E10DE01AF8010B5A461799904783
:1034E000B8F10108F7D25B4621463846179A13E136
:1034F00042E00A220092C4F302524FF0000A022A6C
:1035000008D059F804CB032A4FEAEC710AD00DE039
:1035100029E02AE009F1070121F00702F2E802C1DF
:10352000914609E00FFA8CFC4FEAEC71042A03D1B2
:103530004FFA8CFC4FEAEC71002907DA0A460021A9
:10354000DCF1000C61EB02012D2202E0220504D522
:103550002B228DF80420012203E0E20701D0202273
:10356000F7E7904659E00A2102E010220DE0102111
:103570004FF0000A00910BE010224FF0000A44F0D7
:1035800004040827009203E008224FF0000A00928A
:10359000C4F30252022A05D059F804CB0021032AB1
:1035A00008D009E009F1070121F00702F2E802C1A1
:1035B000914605E01FFA8CFC042A01D10CF0FF0CA7
:1035C0004FF00008220728D5702806D0009B83F012
:1035D000100353EA0A0305D00EE040228DF80420C0
:1035E000012208E05CEA010206D030228DF80420B6
:1035F0008DF8050002229046009B83F0080353EAF1
:103600000A030AD15CEA010201D1620705D5302222
:103610008DF804204FF001087F1E582804D034A0F4
:1036200003900EA802900DE036A0F9E753466046DD
:10363000009AFDF76DF884460398825C0298401E5C
:10364000029002705CEA0100F0D1029806A9081A03
:1036500000F1200A600702D524F4803400E001273D
:10366000574502DDA7EB0A0000E0002000EB0A014D
:10367000009005984144401A0590E00306D45B464B
:103680002146179A059800F0B3F90544002706E093
:1036900001A85A46C05D179990476D1C7F1C47458D
:1036A000F6DBE0030CD55B462146179A059800F03F
:1036B0009FF9054404E030205A46179990476D1C45
:1036C0000099481E00900029F5DC08E00298029954
:1036D0005A460078491C0291179990476D1CBAF11F
:1036E0000001AAF1010AF1DC65E1000009280100EE
:1036F0003031323334353637383961626364656668
:103700000000000030313233343536373839414229
:10371000434445460000000000F058F90544761C7B
:10372000307800287FF4ECAD19B02846BDE8F08F62
:10373000620700D4062709F1070222F0070CFCE813
:103740000223E14603F000485FEA080C02D00FF2C2
:10375000702C0DE05FEA045C02D50FF2682C07E0E4
:103760005FEAC47C02D00FF2602C01E0AFF2700C73
:103770004FF0FF3823F00043CDF850C065280CD03F
:1037800006DC452809D046281DD047283DD13DE01C
:10379000662818D067287ED138E00021112F01DB80
:1037A000112000E0781CCDE9000106A90EA8FFF762
:1037B000EDFCDDE90F010E9A03910021009207F163
:1037C000010A04914DE04FF000400097CDE901104F
:1037D00006A90EA8FFF7DAFCDDE90F0203920E9BA3
:1037E00011990022DDF80CA00093049211B9791C04
:1037F00000EB010AB7EB0A0004D4C0F1FF3007F177
:10380000010A0490AAEB0700019044E0012F00DABE
:1038100001270021112F01DD112000E03846CDE9FC
:10382000000106A90EA8FFF7B1FCDDE90F010E9A11
:103830000391002104910092BA4621070CD4039908
:10384000514500DA8A46BAF1010F05DD009AAAF166
:103850000101515C302908D0B84202DA10F1040F9E
:1038600006DA0121CDE9011015E0AAF10101E9E72D
:10387000002805DC049901440491AAEB000102E050
:10388000411C514500DD8A460499401A401C0190B4
:103890004FF000400290200704D40198504501DB0E
:1038A000CDF8048000208DF84F0002980DF14F07ED
:1038B000B0F1004F25D02B200E9002984FF0020857
:1038C00000280CDA404202902D200E9007E00A21D9
:1038D0000298FCF707FF3031029007F8011DB8F19C
:1038E0000001A8F10108F2DC02980028EFD1791E4E
:1038F0000E980870307800F0200040F0450007F87E
:10390000020D12A8C01B00F107081498007800B13E
:10391000012000EB0A01019801EBE0710598414498
:10392000401A401E0590E00306D45B462146179AD4
:10393000059800F05DF805441498007818B15A46CF
:10394000179990476D1CE00324D55B462146179AD2
:10395000059800F04DF805441CE00498002807DBAA
:10396000DDE90301884203DD0098405C179901E01E
:10397000179930205A469047049805F10105401CDC
:1039800004900198401E019004D12E205A461799A8
:1039900090476D1CBAF10001AAF1010ADDDC05E0D7
:1039A00017F8010B5A46179990476D1CB8F10001A2
:1039B000A8F10108F4DC5B462146179A0598ABE6AE
:1039C0002D0000002B000000200000002DE9F04138
:1039D000044600251E461746880404D405E03946EF
:1039E0002020B0476D1C641EF9D52846BDE8F08143
:1039F0002DE9F041044600251E469046C80301D536
:103A0000302700E02027880404D505E041463846E9
:103A1000B0476D1C641EF9D52846BDE8F0810A68E0
:103A2000531C0B60107070472DE9F04F8BB00446AB
:103A300047F6FF7A40F62570844245DA482C43DD8C
:103A40004FF0000B3CE0274830F81B00A04233DA6F
:103A50005846FCF79BFDCDE90401ABF10101214A79
:103A600032F8111032F81B20881AFCF78FFD074638
:103A700000221D4BFCF7A4FC05460E46194931F8FF
:103A80001B10601AFCF782FD2A463346CDE900017F
:103A9000FCF708FDCDE90201DDE90423FCF7E9FBB1
:103AA0000022124BCDE90601FCF784FCCDE90801A8
:103AB000FCF7FCFD814606E00BF101000FFA80FBEC
:103AC000BBF1B50FBFDB00BF4846FCF7C3FD0546A1
:103AD0002A460B4606A0FFF725FB48460BB0BDE87B
:103AE000F08F0000266E00080000F03F00003E400E
:103AF000B5B1C7B0CEC2B6C8203D2025322E326641
:103B00000D0A000010B504466FF00400FEF7FAFE3F
:103B1000E11704EB5171C1F3C701074A1170104658
:103B2000007800EB4001C1EBC0104FF6FF7101EAD5
:103B3000C0000249088010BD42000020440000205F
:103B400001460D4A12884A434FF0E0235A61002291
:103B50009A6101221A6100BF4FF0E022106900F063
:103B600001021AB100F48032002AF5D000224FF091
:103B7000E0231A619A6170474400002001460D4A13
:103B800012784A434FF0E0235A6100229A610122E1
:103B90001A6100BF4FF0E022106900F001021AB173
:103BA00000F48032002AF5D000224FF0E0231A61A1
:103BB0009A6170474200002070B504460D46E1B29C
:103BC0000548FFF785FA00BF80210348FFF7B7F9E2
:103BD0000028F9D0204670BD003801402DE9F04F93
:103BE00091B014200B904FF0000B00200A90099028
:103BF000079004900390FEF76FFD17E18F4800785F
:103C000000283CD000208D4908708DA04FF6FF7130
:103C10001F22CDE9002102908B4802883C2300211D
:103C20000846FDF731F90120FEF7A0FC834658460F
:103C3000FFF7FAFE0290FCF70DFD07463A460B46E9
:103C400082A10CA8FFF77EFA5846FFF7EDFE074663
:103C5000FDF714FE4FF4FC607E4908801F203C23D2
:103C60004FF4A07214210090C820FEF76DF80120D7
:103C70000CAB102214210090C820FEF7DFFA764822
:103C800000780128B9D10020734908700024DFF8BA
:103C9000CC918246642420E0714850F82410A4F1AD
:103CA00064006F4A42F820106E4850F82410A4F1C6
:103CB00064006C4A42F82010694850F824004845D6
:103CC00002D2674850F82490654850F824005045C7
:103CD00002D9634850F824A0641CB4F5FA7FDBDBFA
:103CE0004FF4C87469E0601E5D4951F8205000BF70
:103CF0005D4800680128FBD005A9072000F055FDAC
:103D00009DF814008007800B9DF8151040EA0120F3
:103D10009DF816100843524941F824009DF81700F9
:103D20008007800B9DF8181040EA01209DF81910BB
:103D300008434C4941F82400494850F82400A8425F
:103D40001DD9474951F82410481BFCF71AFC08906C
:103D5000AAEB0900FCF715FC074639460898FCF762
:103D60004AFA089041490898FCF713FA0890089815
:103D7000FCF72AFC361A002E1EDA00261CE0384911
:103D800051F82410681AFCF7FCFB0890AAEB090014
:103D9000FCF7F7FB074639460898FCF72CFA089021
:103DA00032490898FCF7F5F908900898FCF70CFCE4
:103DB0000644FF2E00DDFF26641CB4F5FA7F92DB7B
:103DC0002B482C492C4A2D4BCDE900210290244A46
:103DD0002B480168234800F099FD2AA04FF6FF7197
:103DE0004FF6E072CDE90021029017480288772350
:103DF0003C210020FDF748F8204824A102680CA8C7
:103E0000FFF7A0F91F20134908804FF6E0705023F8
:103E10009F2219460090C820FDF796FF01200CABA9
:103E2000102250210090C820FEF708FA18480078A8
:103E300000283FF4E3AE11B0BDE8F08F3000002061
:103E4000CCE5CBF9203A0000E002002025322E31EB
:103E5000660000003C00002032000020FFFF03004D
:103E600020220020501A00200C81214200007F43B4
:103E70005800002054000020500000204C0000207A
:103E800048000020D1AAD1F5203A000025690000A1
:103E9000350000203EB5FEF71FFC0120FEF766FB53
:103EA000044640F6D27084420FDB2BA04FF6FF7120
:103EB0004FF47842CDE9002102902F4802883B233D
:103EC00000210846FCF7E0FF0DE02CA04FF6FF7143
:103ED0001F22CDE900210290274802883B230021C0
:103EE0000846FCF7D1FF21462CA0FFF71BF9002064
:103EF000FEF73CFB044621462EA0FFF713F940F6DF
:103F00003400844203DA40F2DC5084420FDC30A0FB
:103F10004FF6FF714FF47842CDE900210290164828
:103F2000028877233C210020FCF7AEFF0DE02EA095
:103F30004FF6FF711F22CDE9002102900E48028842
:103F400077233C210020FCF79FFF00BF2D4800781D
:103F50000028FBD03EBD000054454D504552415411
:103F600055524520434F4E4E4543544544204552FB
:103F7000524F522021000000E002002054454D50D5
:103F80004552415455524520434F4E4E45435445AA
:103F900044205355434345535320210074656D70AD
:103FA0005F6164635F6E756D203D202564200D0A9E
:103FB0000000000074656D705F6164635F6E756D15
:103FC0002A2A2A2A2A203D202564200D0A000000E2
:103FD00050554C534520434F4E4E45435445442085
:103FE0004552524F5220210050554C534520434FCB
:103FF0004E4E454354454420535543434553532067
:1040000021000000350000202DE9F04FADF5337D93
:1040100000250020AC90AB90AA90089005900490E9
:10402000FEF75AFB00211420FCF7A6FF86E10220D0
:10403000FCF7F4FE012866D10220FCF72FFE0127D1
:104040004CE0C34931F82700FCF7B1FA0022C14B1C
:10405000CDE90001FCF726FACDE90201FCF726FBC9
:104060008046BD49FCF795F80AA941F827000F20C2
:10407000FFF766FD4FF47840B8490880E819401C06
:10408000142190FBF1F201FB120060B90020B3494A
:104090000880E919491C8AB2E919491C88B2F02341
:1040A0006421FDF7B7FD0AA951F82700FCF7A5FA2E
:1040B000C0F58C701FFA80F8791E0AAA52F8210008
:1040C000FCF79BFAC0F58C7080B2E919039088B2B6
:1040D00042460399FCF782FF781CC7B2A02FB0DBE1
:1040E000A035B5F5A07F0ADB00254FF6FF709C498F
:1040F00000904B880A8828466421FDF725FE0021A0
:104100001420FCF739FF9748007800283AD00020A7
:10411000944908700120FEF729FAAC90AC98FFF79B
:1041200083FC0390FCF796FA07463A460B468EA1AD
:10413000ADA8FFF707F8AC98FFF776FC0746FDF748
:104140009DFB1F20854908804FF6FF702823DA0069
:1041500014210090A020FDF7F7FD0120ADAB102247
:1041600014210090C820FEF769F80120102180A2D8
:104170004FF4FC63CDE9002102901F221421A020FE
:10418000FEF73AFB7C48007801287CD100207A4970
:1041900008700024DFF8E4A18346642420E0784816
:1041A00050F82410A4F16400754A42F820107548B4
:1041B00050F82410A4F16400724A42F820107048AC
:1041C00050F82400504502D26D4850F824A06C48A5
:1041D00050F82400584502D9694850F824B0641CAE
:1041E000B4F5FA7FDBDB4FF4C87470E0601E6449FD
:1041F00051F8206000BF644800680128FBD006A980
:10420000072000F0D2FA9DF818008007800B9DF877
:10421000191040EA01209DF81A100843584941F846
:1042200024009DF81B008007800B9DF81C1040EABD
:1042300001209DF81D100843524941F824005048C0
:1042400050F82400B04222D94D4951F82410881B5F
:10425000FCF797F90990ABEB0A00FCF792F90746D7
:1042600039460998FBF7C7FF099048490998FBF7B9
:1042700090FF09900998FCF7A7F9A9EB0009B9F19B
:10428000000F23DA00E059E04FF000091EE03C493E
:1042900051F82410701AFCF774F90990ABEB0A007E
:1042A000FCF76FF9074639460998FBF7A4FF099018
:1042B00036490998FBF76DFF09900998FCF784F9D6
:1042C0008144B9F1FF0F01DD4FF0FF09641CB4F523
:1042D000FA7F8BDB2E482F492F4A304BCDE9002146
:1042E0000290274A2E480168264800F00FFB2B4811
:1042F0002CA10268ADA8FEF725FF1F2017490880F2
:104300004FF6FF703C239F22142100900846FDF7D2
:104310001BFD0120ADAB1022142100903C20FDF7C5
:104320008DFF0120102121A24FF4FC63CDE9002173
:1043300002901F2214210846FEF75EFA1D480078FD
:1043400000283FF474AE0DF5337DBDE8F08F00001A
:10435000600000200000B040000048433C00002006
:10436000E0020020300000203A2025322E31660085
:10437000CCE5CBF90000000032000020FFFF030075
:1043800020220020501A00200C81214200007F438F
:104390005800002054000020500000204C00002055
:1043A000480000203A20256920000000D1AAD1F55C
:1043B000000000003500002086B0002500BF00BFCF
:1043C00000BF00BF00BFFEF7DDFAFEF7DDFCFEF721
:1043D00033FDFCF797FBFCF755FF4820FFF792FBF6
:1043E000FDF708FDFCF716FC00F020FA4FF6FF7011
:1043F0000090AE484388028800210846FDF7A4FCDF
:10440000AB4A46217820FDF7E3F941F28830FFF707
:1044100097FB4FF6FF700090A44843880288002164
:104420000846FDF791FCFCF753FDA24E00274FF420
:10443000FA70A1490860002438E002E09FA0FEF76E
:1044400071FEA04800680128F8D004A9072000F0F8
:10445000ACF99DF810008007800B9DF8111040EA20
:1044600001209DF812100843974941F824009DF857
:1044700013008007800B9DF8141040EA01209DF87E
:1044800015100843914941F824008F4850F8240042
:10449000B04202D28C4850F824608B4850F8240077
:1044A000B84202D9884850F82470641C82480068D9
:1044B0008442C2DB00BF86488649874A874BCDE9E4
:1044C00000210290804A7C480168804800F01EFA72
:1044D000EBE08348007801281FD18248007803214F
:1044E00090FBF1F201FB120020B1012805D0022857
:1044F00009D105E0FFF772FB05E0FFF785FD02E05B
:10450000FFF7C8FC00BF00BF00207649087074495F
:10451000087075490870FCF7DBFC744800780028C7
:104520007BD00020714908706E480078032190FB11
:10453000F1F201FB120020B1012838D0022835D158
:104540006CE06BA04FF6FF714FF6E072CDE90021F1
:104550000290564802883B2300210846FCF794FC51
:1045600066A04FF6FF711F22CDE9002102904F484F
:10457000028877233C210020FCF786FC61A04FF6DF
:10458000FF711F22CDE90021029048480288B32321
:1045900078210020FCF778FC4FF6FF70009043482C
:1045A00043880288B4210020FDF7CEFB6CE050A0C8
:1045B0004FF6FF711F22CDE9002102903B4802888F
:1045C0003B2300210846FCF75FFC4CA04FF6FF712F
:1045D0004FF6E072CDE9002102903448028877233B
:1045E0003C210020FCF750FC46A04FF6FF711F2233
:1045F000CDE9002102902D480288B32378210020C4
:10460000FCF742FC4FF6FF70009028484388028870
:10461000B4210020FDF798FB36E036E034A04FF6D9
:10462000FF711F22CDE900210290204802883B2320
:1046300000210846FCF728FC30A04FF6FF711F222E
:10464000CDE9002102901948028877233C210020FF
:10465000FCF71AFC2BA04FF6FF714FF6E072CDE984
:104660000021029011480288B32378210020FCF732
:104670000BFC4FF6FF7000900C4843880288B42171
:104680000020FDF761FB00BF00BF2148007860B14A
:1046900000201F4908700120FDF768FF05462846E5
:1046A000FFF7C2F98046FDF7E9F812E7E0020020C3
:1046B00086700008FFFF03004800002064696564FD
:1046C0002E2E2E000C81214220220020501A002084
:1046D0005800002054000020500000204C00002012
:1046E0003400002033000020350000203600002078
:1046F000D1AAD1F520CCE5CBF9000000C2F6B2ABCF
:10470000B2A80000C9E8B1B8D7B4CCAC0000000032
:104710003000002070B50446FDF7FEF9AE20FDF72D
:10472000C7F9FDF745FA00B119E02046FDF7C0F9D9
:10473000FDF73EFA00B112E0FDF7EEF9AF20FDF70C
:10474000B7F9FDF735FA00B109E00020FDF778F977
:104750000546FDF74DF9FDF705FA284670BDFDF752
:1047600001FA0020FAE770B505460C46FDF7D4F9CA
:10477000AE20FDF79DF9FDF71BFA00B111E02846C8
:10478000FDF796F9FDF714FA00B10AE02046FDF7AF
:104790008FF9FDF70DFA00B103E0FDF7E3F9012011
:1047A00070BDFDF7DFF90020FAE770B505460C464D
:1047B0000020FFF7AFFF0120FFF7ACFFFDF7ACF9DA
:1047C000AE20FDF775F9FDF7F3F900B12AE02846B0
:1047D000FDF76EF9FDF7ECF900B123E0FDF79CF968
:1047E000AF20FDF765F9FDF7E3F900B11AE001200C
:1047F000FDF726F920700120FDF722F960700120F5
:10480000FDF71EF9A0700120FDF71AF9E0700120F4
:10481000FDF716F920710020FDF712F96071FDF720
:10482000A1F900BFFDF79EF970BD000008B5012198
:104830000820FDF711FE4FF48040ADF8000048203D
:104840008DF8030069461A48FCF79AFDFDF7B0F8A9
:1048500000F030F8C0210220FFF785FF002103207F
:10486000FFF781FF00210420FFF77DFF00210520D5
:10487000FFF779FF00210620FFF775FF0F210820C1
:10488000FFF771FF03210920FFF76DFF27210A20A1
:10489000FFF769FF24210C20FFF765FF24210D207D
:1048A000FFF761FF7F211020FFF75DFF08BD0000CB
:1048B000000C014010B540210920FFF754FF4021B2
:1048C0000920FFF750FF10BD2DE9F84705460C46BB
:1048D00016461F46DDE90A9ADDF824803B4632463B
:1048E00021462846CDF8008000F090FA4B4632462B
:1048F0002146284600F0C7FA2068504501DA2068B2
:1049000000E050462060BDE8F88700002DE9FF4F29
:10491000C6B08846994600204590002406E0469897
:1049200050F82410459808444590641C4445F6DB33
:104930004598B0FBF8F04590002408E0469850F800
:1049400024104598081AFE4941F82400641C444587
:10495000F4DB002417E0FA4850F824100246601CEB
:1049600052F820000144A01C52F820000144E01C31
:1049700052F820000F183846F91707EB917189108B
:1049800042F82410641CB4F5F87FE4DB00240AE04C
:10499000EB49601C51F8200051F82410401AE949F5
:1049A00041F82400641CB4F5F77FF1DD00240EE02B
:1049B000E44951F824200B46611C53F8211050188B
:1049C00000EBD07149101A4642F82410641CB4F56B
:1049D000F77FEDDB00251BE0002043902C460BE029
:1049E000D84850F82410601BD74A32F8102043985A
:1049F00001FB12004390641C681D8442F0DB40F20E
:104A00007A41439890FBF1F0CE4941F825006D1CA6
:104A1000B5F5F47FE0DD00204190002410E0C948A6
:104A200050F82400002803DDC64850F8240003E0B5
:104A3000C44850F824004042419908444190641C05
:104A4000B4F5F77FEBDD40F2EF11419890FBF1F008
:104A5000419005210822419840F2EF13CDE9012150
:104A60000090B84A40A912A8FFF72EFF002011902D
:104A70004098022821DB01240BE012A850F82410F2
:104A8000601E12AA52F82000091A119808441190C9
:104A9000641C40988442F0DB4098401E119991FBC1
:104AA000F0F0119041F27071119891FBF0F154986F
:104AB000016001215598017005E0A44954980160F6
:104AC000002155980170002407E012A850F8240036
:104AD000801C30A941F82400641C40988442F4DB17
:104AE00000240CE0469850F82400954941F8240031
:104AF000489850F82400964941F82400641C444525
:104B0000F0DB0020429000242DE00120449030A8EA
:104B100050F824A04FF080703F900AF10500B0F5E6
:104B2000F77F1FDC0A3800281CDD054611E08448A9
:104B300050F825103F9881420ADA449808B10020C5
:104B400044907F4850F825003F9021A840F8245019
:104B50006D1C0AF105008542E9DB449810B94298C2
:104B6000401C4290641C40988442CEDB429802284C
:104B700008DA7648C9F800000021539801704AB05D
:104B8000BDE8F08F00242EE06D4951F824200B463B
:104B9000611C53F821100A44A11C53F821100A4447
:104BA000E11C53F821105018C11700EB91718910C6
:104BB0001A4642F82410664951F824200B46611C1D
:104BC00053F821100A44A11C53F821100A44E11C97
:104BD00053F821105018C11700EB917189101A4633
:104BE00042F82410641CB4F5F87FCDDB002004905B
:104BF0000026002404E0002005A941F82400641CDC
:104C0000052CF8DB00240DE021A850F82400B0F5B5
:104C1000FA7F06DD4D48C9F8000000215398017065
:104C2000ADE7641C42988442EEDB0024AEE04FF016
:104C30007F400D900C9021A9601C51F8200051F884
:104C40002410401A0A2879DD21A850F8245016E0D3
:104C50003B4850F825100C98814204DD384850F844
:104C600025000C900A953A4850F825100D9881427D
:104C700004DD374850F825000D900B956D1C21A9D7
:104C8000601C51F82000A842E2DC601C51F82000B2
:104C90002F4951F8200021A951F824102C4A52F82C
:104CA0002110401A21A951F824200B99891A484350
:104CB000109021A9601C51F8200051F82410411ACD
:104CC000109890FBF1F021A951F82410204A52F8D5
:104CD00021100844109011460B9851F8201010989C
:104CE000081A109021A9601C51F82000144951F8AD
:104CF000200021A951F82410114A52F82110401A1D
:104D000021A951F824200A99891A48430F9021A912
:104D1000601C51F8200051F82410411A0F9890FBA4
:104D2000F1F021A951F82410054A52F82110084445
:104D30000F9011460B9851F820100BE025E0000071
:104D4000B00A0020F0020020906F000819FCFFFF5D
:104D5000801200200F98081A0F900C991098484361
:104D6000C01103900D990F984843C711002F0CDD17
:104D7000052E0ADA039840B164210398484390FB5A
:104D8000F7F005A941F82600761C641C4298401EE5
:104D9000A0423FF74CAF314605A800F0ADF83046D1
:104DA00006EBD0714FEA610BBBF1010F0CDDABF1EB
:104DB000010105AA52F8211052F82B20881800EBA7
:104DC000D0714910049103E005A850F82B0004901D
:104DD000049802280DDD0498B8280ADA09490498D5
:104DE000085C0E900E98C9F80000012153980170DC
:104DF00005E00548C9F8000000215398017000BF84
:104E0000BDE60000CE6F000819FCFFFFF0B50546B7
:104E10001C46059E012000270F6030E052F82070EC
:104E2000B7422BDD52F820C0471E52F82770BC4510
:104E300024DD012300E05B1CC718A74207DA52F803
:104E4000207000EB030C52F82CC06745F3D052F8E9
:104E5000207000EB030C52F82CC067450CDD0F6886
:104E60000F2F09DAD1F800C00CF101070F6045F8E7
:104E70002C005F1C384402E0184400E0401C671E10
:104E80008742CBDCF0BD2DE9F04F05460C4692463B
:104E9000984629465046226800F049F84FF0FF3600
:104EA00021E0D4F800B0701C2060771C18E055F8A1
:104EB0002710701C10B94FF0FF3001E055F82600A4
:104EC000A1EB0009C14503DCC8F10000814506DA09
:104ED00055F827102268501C206045F822107F1CCE
:104EE0005F45E4DB761C2068B042DADC28462168A6
:104EF00000F002F8BDE8F08F30B50C46012213E057
:104F000050F82230114605E04D1E50F8255040F86B
:104F10002150491E002904DD4D1E50F825509D42A8
:104F2000F2DC40F82130521CA242E9DB30BDF0B582
:104F300003461546012217E051F82240104605E0CD
:104F4000461E51F8266041F82060401E002808DD0A
:104F500053F82470461E51F8266053F82660B74275
:104F6000EEDC41F82040521CAA42E5DBF0BD000017
:104F70000000000000000000000000000404040421
:104F800004040004000000140A0A000000000000ED
:104F90000000000014143F140A3F0A0A0000000435
:104FA0001E1505060C14150F0400000012150D0A3D
:104FB000142C2A1200000000040A0A1E15150936D6
:104FC00000000002020100000000000000000020BC
:104FD0001008080808080810200000020408080843
:104FE00008080804020000000004150E0E15040055
:104FF000000000000404041F04040400000000007A
:105000000000000000000002020100000000001F7C
:10501000000000000000000000000000000000028E
:105020000000001008080804040202020100000049
:105030000E1111111111110E0000000004060404DC
:105040000404040E000000000E1111080402011FE8
:10505000000000000E11100C1010110E00000000D6
:10506000080C0A0A091E0818000000001F01010FA1
:105070001010110E000000000E09010F1111110E89
:10508000000000001F0908040404040400000000DC
:105090000E11110E1111110E000000000E11111150
:1050A0001E10120E000000000000040000000004AA
:1050B00000000000000000040000000404000020C4
:1050C00010080402040810200000000000001F0067
:1050D000001F000000000002040810201008040255
:1050E000000000000E11110804040004000000007C
:1050F0000E111915151D011E0000000004040C0AF4
:105100000A1E1233000000000F12120E1212120FAC
:10511000000000001E1101010101110E000000003D
:105120000F1212121212120F000000001F120A0EAC
:105130000A02121F000000001F120A0E0A020207D4
:10514000000000001C1201013911120C00000000C7
:105150003312121E12121233000000001F04040446
:105160000404041F000000003E080808080808099D
:105170000700000037120A060A0A12370000000072
:10518000070202020202223F000000001B1B1B1B41
:1051900015151515000000003B1216161A1A1217E5
:1051A000000000000E1111111111110E000000007D
:1051B0000F12120E02020207000000000E11111160
:1051C0001117190E180000000F12120E0A121237D2
:1051D000000000001E1101060810110F0000000061
:1051E0001F1504040404040E000000003312121200
:1051F0001212120C000000003312120A0A0C0404EE
:10520000000000001515150E0A0A0A0A0000000029
:105210001B0A0A04040A0A1B000000001B0A0A04F5
:105220000404040E000000001F0908040402121FF9
:105230000000001C04040404040404041C00000214
:1052400002020404080808100000000E08080808FC
:10525000080808080E0000040A0000000000000012
:10526000000000000000000000000000003F0004FB
:105270000000000000000000000000000000000C22
:10528000121C123C000000000302020E1212120E49
:10529000000000000000001C1202021C00000000C0
:1052A0001810101C1212123C000000000000000C2C
:1052B000121E021C000000003804041E0404041E18
:1052C000000000000000003C120C021E221C000026
:1052D0000302020E12121237000000000400000642
:1052E0000404040E000000000800000C0808080870
:1052F000080700000302023A0A0E123700000000FD
:10530000070404040404041F000000000000000F50
:1053100015151515000000000000000F12121237BD
:10532000000000000000000C1212120C000000002F
:105330000000000F1212120E020700000000001CF5
:105340001212121C103800000000001B0602020797
:10535000000000000000001E020C101E00000000F3
:105360000004040E04040418000000000000001BE8
:105370001212123C0000000000000037120A0C0458
:105380000000000000000015150E0A0A00000000D1
:105390000000001B0A040A1B000000000000003788
:1053A000120A0C04040300000000001E0804041E7E
:1053B0000000001808080804080808081800080871
:1053C0000808080808080808080800060404040873
:1053D0000404040406000225180000000000000078
:1053E00000000000000000000000000000000000BD
:1053F0000000000000080808080808080000181845
:10540000000000486C2412000000000000000000B2
:1054100000000000002424247F1212127F121212B6
:1054200000000000081C2A2A0A0C1828282A2A1C16
:10543000080800000022251515152A585454542236
:1054400000000000000C1212120A76252911916E3C
:105450000000000606040300000000000000000039
:10546000000000402010100808080808081010204C
:105470004000000204080810101010101008080462
:1054800002000000000008086B1C1C6B08080000EC
:10549000000000000000080808087F08080808004D
:1054A00000000000000000000000000000000606F0
:1054B00004030000000000000000FE0000000000E7
:1054C00000000000000000000000000000000606D0
:1054D0000000000080404020201010080804040252
:1054E0000200000000182442424242424242241874
:1054F0000000000000080E08080808080808083E18
:1055000000000000003C4242422020100804427E7D
:1055100000000000003C4242201820404042221C73
:105520000000000000203028242422227E20207841
:1055300000000000007E0202021A26404042221CA7
:105540000000000000382402021A264242422418B9
:1055500000000000007E2222101008080808080839
:1055600000000000003C4242422418244242423CD7
:105570000000000000182442424264584040241CAD
:1055800000000000000000001818000000001818BB
:1055900000000000000000000008000000000008FB
:1055A00008040000004020100804020408102040F5
:1055B00000000000000000007F0000007F000000ED
:1055C000000000000002040810204020100804021F
:1055D00000000000003C4242464020101000181815
:1055E00000000000001C225A555555552D42221C22
:1055F00000000000000808181414243C224242E76E
:1056000000000000001F2222221E22424242221FCE
:1056100000000000007C4242010101010142221C05
:1056200000000000001F2242424242424242221F2A
:1056300000000000003F4212121E12120242423FBE
:1056400000000000003F4212121E12120202020766
:1056500000000000003C2222010101712122221CD5
:105660000000000000E7424242427E42424242E7DE
:1056700000000000003E0808080808080808083E66
:1056800000000000007C10101010101010101010FE
:10569000110F0000007722120A0E0A12122222773E
:1056A0000000000000070202020202020202427F22
:1056B000000000000077363636362A2A2A2A2A6B5E
:1056C0000000000000E346464A4A525252626247D6
:1056D00000000000001C2241414141414141221C87
:1056E00000000000003F424242423E020202020726
:1056F00000000000001C2241414141414D53321C39
:1057000060000000003F4242423E1212222242C785
:1057100000000000007C4242020418204042423E49
:1057200000000000007F4908080808080808081C55
:105730000000000000E74242424242424242423CF4
:105740000000000000E74242222424141418080834
:1057500000000000006B4949494955553622222274
:105760000000000000E7422424181818242442E70F
:105770000000000000772222141408080808081C02
:1057800000000000007E2120101008040442423F67
:105790000000007808080808080808080808080831
:1057A00078000000020204040808081010202020DD
:1057B0004040001E1010101010101010101010108B
:1057C0001E0000384400000000000000000000003F
:1057D00000000000000000000000000000000000C9
:1057E00000FF0006080000000000000000000000AC
:1057F0000000000000000000003C4278444242FCEF
:105800000000000000030202021A26424242261A49
:10581000000000000000000000384402020244388A
:10582000000000000060404040784442424264D89A
:105830000000000000000000003C427E0202423CEA
:105840000000000000F08808087E08080808083EEC
:105850000000000000000000007C22221C023C42EC
:10586000423C000000030202023A4642424242E742
:1058700000000000000C0C00000E08080808083E9C
:1058800000000000003030000038202020202020C0
:10589000221E0000000302020272120A1612227770
:1058A00000000000000E0808080808080808083E64
:1058B0000000000000000000007F9292929292B7D8
:1058C0000000000000000000003B4642424242E768
:1058D0000000000000000000003C42424242423C06
:1058E0000000000000000000001B26424242221E71
:1058F0000207000000000000007844424242447861
:1059000040E000000000000000774C040404041F85
:105910000000000000000000007C42023C40423ECB
:105920000000000000000008083E080808080830D1
:10593000000000000000000000634242424262DCBE
:10594000000000000000000000E7422424140808C2
:10595000000000000000000000EB494955552222DC
:105960000000000000000000007624181818246EC3
:10597000000000000000000000E742242414180882
:105980000807000000000000007E22100808447E86
:10599000000000C0202020202010202020202020D7
:1059A000C000101010101010101010101010101057
:1059B0001010000608080808081008080808080859
:1059C00006000C32C20000000000000000000000D1
:1059D0000000C9EE000027FC140414A48110420842
:1059E0004040104017FC2040E0E0215022482C4667
:1059F00020400040DBDA1104112411241124112469
:105A0000FD24112411241124112411241D24E12426
:105A1000422402040404CAD00200010000007FFCFA
:105A20000100010001003FF8210821082108210898
:105A30002128211001000100C8AB000000000180F6
:105A400002400430180860061FF90100010001003F
:105A50003FF80100010001007FFEB6AF000000002A
:105A600000203E20007C002200227F2210221022F3
:105A700012221222224223423D82009CB5E70000FE
:105A8000010001001FF0610C410441047FFC41044E
:105A9000410441047FFC01000102010201FCD7D353
:105AA000000000003FF8001000600080010000804E
:105AB0007FFE0040004000200020002018400780AA
:105AC000BCBC10201020102013FEFC201020102041
:105AD00015FC18843088D048105010201050518880
